:100000000EC01DC01CC01BC031C019C018C03DC0EF
:1000100016C015C014C013C012C011C010C01124E6
:100020001FBECFE5D2E0DEBFCDBF10E0A0E6B0E05E
:1000300001C01D92A336B107E1F736D067C0E0CF0B
:10004000882319F088B3826002C088B38D7F88BB93
:1000500008958FE080BF89B7846089BF089584B315
:10006000836084BB469A419A439A08951F920F92E7
:100070000FB60F9211248F9381E0809361008F91CE
:100080000F900FBE0F901F9018951F920F920FB6F2
:100090000F9211248F9381E0809360008F910F90D5
:1000A0000FBE0F901F901895B99A80E0C9DFD1DF7D
:1000B000D6DF789485B78F7E85BF85B7877F85BF6C
:1000C000CCE0DFE085B7806285BF889585B78F7DFE
:1000D00085BF80916100813039F480E0B1DFD09339
:1000E000620010926100EECF80916000813051F784
:1000F0008091620081118150809362008111E2CF72
:10010000CFBD81E09DDF10926000DCCFF894FFCF7F
:00000001FF
