:100000000EC028C027C026C03CC024C023C048C0A2
:1000100021C020C01FC01EC01DC01CC01BC0112499
:100020001FBECFE5D2E0DEBFCDBF10E0A0E6B0E05E
:10003000E6E2F1E002C005900D92A236B107D9F7D1
:1000400010E0A2E6B0E001C01D92A436B107E1F7CE
:1000500036D067C0D5CF882319F088B3826002C03C
:1000600088B38D7F88BB08958FE080BF89B7846097
:1000700089BF089584B3836084BB469A419A439AAA
:1000800008951F920F920FB60F9211248F9381E063
:10009000809363008F910F900FBE0F901F90189563
:1000A0001F920F920FB60F9211248F9381E08093CD
:1000B00062008F910F900FBE0F901F901895B99A04
:1000C00080E0C9DFD1DFD6DF789485B78F7E85BF2A
:1000D00085B7877F85BFCFE0DCE085B7806285BFCD
:1000E000889585B78F7D85BF80916200882371F0E8
:1000F0008091600081118150809360008111EDCF6B
:10010000DFBD81E0A8DF10926200E7CF809163003D
:10011000882319F380E09FDFC09360001092630092
:06012000DCCFF894FFCFD4
:020126000F00C8
:00000001FF
