:100000000EC028C027C026C03EC024C023C04AC09E
:1000100021C020C01FC01EC01DC01CC01BC0112499
:100020001FBECFE5D2E0DEBFCDBF10E0A0E6B0E05E
:10003000E8E2F1E002C005900D92A236B107D9F7CF
:1000400010E0A2E6B0E001C01D92A436B107E1F7CE
:1000500038D068C0D5CF882319F088B3826002C039
:1000600088B38D7F88BB08958FE080BF89B7846097
:1000700089BF08951E9A389A84B3836084BB469AD8
:10008000419A439A08951F920F920FB60F9211242E
:100090008F9381E0809363008F910F900FBE0F903C
:1000A0001F9018951F920F920FB60F9211248F93E5
:1000B00081E0809362008F910F900FBE0F901F9090
:1000C0001895B99A80E0C7DFCFDFD4DF789485B781
:1000D0008F7E85BF85B7877F85BFCFE0DCE085B7A2
:1000E000806285BF889585B78F7D85BF80916200CE
:1000F000882369F0809160008111815080936000B5
:100100008111EDCFDFBDA7DF10926200E8CF8091B3
:100110006300882321F381E09EDFC093600010928A
:080120006300DDCFF894FFCF6E
:020128000F00C6
:00000001FF
