:100000000EC028C057C026C02DC024C023C03EC08B
:1000100021C020C01FC01EC01DC01CC01BC0112499
:100020001FBECFE5D2E0DEBFCDBF10E0A0E6B0E05E
:10003000EAE1F2E002C005900D92A236B107D9F7CD
:1000400010E0A2E6B0E001C01D92A436B107E1F7CE
:1000500096D0E1C0D5CF20EB34E0FC013283218380
:10006000138208951F920F920FB60F9211248F934F
:100070009F9386EA90E090936300809362009F9143
:100080008F910F900FBE0F901F9018951F920F9297
:100090000FB60F9211248F939F938DE890E0909369
:1000A0006300809362009F918F910F900FBE0F901D
:1000B0001F9018951F920F920FB60F921124109255
:1000C0006300109262000F900FBE0F901F90189562
:1000D000882319F088B3826002C088B38D7F88BB03
:1000E0000895882319F088B3816002C088B38E7F99
:1000F00088BB089590916000992311F0915001C040
:1001000098EC90936000983030F491E0811101C038
:1001100090E0892F01C080E0E4CFCF93DF93EC0122
:10012000888181118150888381110DC081E0D0DFE9
:100130008B81811102C081E0DDDF80EB94E09A8346
:1001400089838C818FBDDF91CF910895CF93DF9309
:10015000EC0180E0BDDF80E0CDDF8FE08883298186
:100160003A812115310511F0215031093A83298353
:10017000232B11F481E08B83DF91CF910895CF93EE
:10018000DF9300D000D01F92CDB7DEB78E010F5F96
:100190001F4F85E0F80111928A95E9F7B99AB89A4C
:1001A000AB9A8BB780628BBF81E092DF2FE020BFDC
:1001B00089B7846089BF1E9A389A84B3836084BBF0
:1001C000469A419A439A789495B79F7E95BF95B782
:1001D000977F95BF80EB94E09B838A83298395B7B3
:1001E000906295BF889595B79F7D95BFE09162001D
:1001F000F0916300309799F3C8010995439887EC13
:1002000090E00197F1F700C00000439A109263005C
:0A02100010926200E4CFF894FFCFD3
:02021A000700DB
:00000001FF
