:100000000EC01DC01CC01BC031C019C018C03DC0EF
:1000100016C015C014C013C012C011C010C01124E6
:100020001FBECFE5D2E0DEBFCDBF10E0A0E6B0E05E
:1000300001C01D92A336B107E1F732D063C0E0CF13
:10004000882319F088B3826002C088B38D7F88BB93
:1000500008958FE080BF89B7846089BF089584B315
:10006000836084BB469A419A439A08951F920F92E7
:100070000FB60F9211248F9381E0809360008F91CF
:100080000F900FBE0F901F9018951F920F920FB6F2
:100090000F92112444980F900FBE0F901F90189547
:1000A000B99A81E0CDDFD5DFDADFC19A789485B7E0
:1000B0008F7E85BF85B7877F85BFCCE0CFBD85B7F5
:1000C000806285BF889585B78F7D85BF80916000F0
:1000D0008130A1F7809162008F5F80936200813050
:1000E00071F490916100911180E080936100882308
:1000F00011F081E001C080E0A3DF10926200109255
:080100006000DCCFF894FFCF92
:00000001FF
