:100000000EC028C04AC026C026C024C023C034C0A9
:1000100021C020C01FC01EC01DC01CC01BC0112499
:100020001FBECFE5D2E0DEBFCDBF10E0A0E6B0E05E
:10003000E2EEF1E002C005900D92A436B107D9F7C7
:1000400010E0A4E6B0E001C01D92A536B107E1F7CB
:100050005AD0C5C0D5CF1F920F920FB60F92112460
:100060008F93809164008460809364008F910F90DF
:100070000FBE0F901F9018951F920F920FB60F9200
:1000800011248F93809164008260809364008F912B
:100090000F900FBE0F901F9018951F920F920FB6E2
:1000A0000F9211248F93C39B05C0809164008E7FB3
:1000B000809364008F910F900FBE0F901F90189542
:1000C000882319F088B3826002C088B38D7F88BB13
:1000D0000895882319F088B3816002C088B38E7FA9
:1000E00088BB089590916000992311F0915001C050
:1000F00098EC90936000983010F4811102C080E079
:1001000001C081E0E6CFB99AB89AAB9A8BB780620A
:100110008BBF81E0D5DF8FE080BF89B7846089BF66
:100120001E9A389A84B3836084BB469A419A439A54
:10013000789485B78F7E85BF85B7877F85BFCFE0F1
:10014000DAE085B7806285BF889585B78F7D85BFEA
:100150008091640081FF15C08091630081118150FE
:1001600080936300811109C081E0AADF809164005F
:1001700080FF02C081E0B6DFDFBD809164008D7F2B
:1001800023C08091640082FF21C080E099DF80E07D
:10019000A9DFC09363008091610090916200009795
:1001A00009F001979093620080936100892B49F4D4
:1001B0008091640080FD05C080916400816080931F
:1001C0006400809164008B7F80936400439887EC87
:1001D00090E00197F1F700C00000439AB2CFF89485
:0201E000FFCF4F
:0401E20007B0040F4F
:00000001FF
