:100000000EC028C085C026C061C024C023C06FC0F8
:1000100021C020C01FC01EC01DC01CC01BC0112499
:100020001FBECFE5D2E0DEBFCDBF10E0A0E6B0E05E
:10003000EEEEF1E002C005900D92A436B107D9F7BB
:1000400010E0A4E6B0E001C01D92A536B107E1F7CB
:1000500072D0CBC0D5CF882319F088B3826002C09C
:1000600088B38D7F88BB0895882319F088B3816099
:1000700002C088B38E7F88BB089590916000992359
:1000800011F0915001C098EC90936000983010F4FA
:10009000811102C080E001C081E0E6CF8FE080BF27
:1000A00089B7846089BF08951E9A389A84B38360A3
:1000B00084BB469A419A439A0895439887EC90E00E
:1000C0000197F1F700C00000439A08951F920F9224
:1000D0000FB60F9211248F938091640084608093F7
:1000E00064008F910F900FBE0F901F9018951F9274
:1000F0000F920FB60F9211248F938091640082604B
:10010000809364008F910F900FBE0F901F901895F1
:100110001F920F920FB60F9211248F93C39B05C0AD
:10012000809164008E7F809364008F910F900FBE4A
:100130000F901F901895B99AB89AAB9A8BB78062B6
:100140008BBF81E088DFAADFAFDF789485B78F7E31
:1001500085BF85B7877F85BFCFE0DCE0AEDF85B7A1
:10016000806285BF889585B78F7D85BF809164004B
:1001700081FF15C0809163008111815080936300DD
:10018000811109C081E067DF8091640080FF02C0B7
:1001900081E073DFDFBD809164008D7F23C080919B
:1001A000640082FFDBCF80E056DFC093630080E015
:1001B00064DF8091610090916200009709F00197DF
:1001C0009093620080936100892B49F480916400D0
:1001D00080FD05C0809164008160809364008091FF
:0E01E00064008B7F80936400B9CFF894FFCF4A
:0401EE0007B0040F43
:00000001FF
