:100000000EC028C027C026C05FC024C023C06DC05A
:1000100021C020C01FC01EC01DC01CC01BC0112499
:100020001FBECFE5D2E0DEBFCDBF10E0A0E6B0E05E
:10003000ECEBF1E002C005900D92A436B107D9F7C0
:1000400010E0A4E6B0E001C01D92A536B107E1F7CB
:100050005DD0B2C0D5CF882319F088B3826002C0CA
:1000600088B38D7F88BB0895882319F088B3816099
:1000700002C088B38E7F88BB08958091600088237A
:1000800011F0815001C088EC80936000883010F43A
:1000900081E001C080E0E8CF8FE080BF89B7846055
:1000A00089BF08951E9A389A84B3836084BB469AA8
:1000B000419A439A0895439887EC90E00197F1F7AD
:1000C00000C00000439A08951F920F920FB60F923E
:1000D00011248F93809164008860809364008F91D5
:1000E0000F900FBE0F901F9018951F920F920FB692
:1000F0000F9211248F938091640084608093640038
:100100008F910F900FBE0F901F901895B99AB89AC3
:1001100081E0A1DFC1DFC6DF789485B78F7E85BF20
:1001200085B7877F85BFCFE0DCE0C5DF85B780621C
:1001300085BF889585B78F7D85BF8091640082FFDC
:1001400015C08091630081118150809363008111FB
:1001500009C081E080DF8091640081FF02C081E0FE
:100160008CDFDFBD809164008B7F23C080916400B1
:1001700083FFDBCF80E06FDFC093630080E07DDF33
:100180008091610090916200009709F0019790932F
:10019000620080936100892B49F48091640081FDA5
:1001A00005C0809164008260809364008091640047
:0C01B000877F80936400B9CFF894FFCFE4
:0401BC00073C000FED
:00000001FF
