:100000000EC01DC01CC01BC02EC019C018C017C018
:1000100016C015C014C013C012C011C010C01124E6
:100020001FBECFE5D2E0DEBFCDBF10E0A0E6B0E05E
:1000300001C01D92A336B107E1F724D054C0E0CF30
:10004000882319F088B3826002C088B38D7F88BB93
:1000500008958FE080BF89B7846089BF0895469A6C
:10006000439A419A08951F920F920FB60F9211244E
:100070008F9381E0809360008F910F900FBE0F905F
:100080001F901895B99A81E0DBDFE3DFE8DF789411
:1000900085B78F7E85BF85B7877F85BFCCE0CFBD15
:1000A00085B7806285BF889585B78F7D85BF809134
:1000B00060008130A1F7809162008F5F80936200C1
:1000C000813071F490916100911180E08093610022
:1000D000882311F081E001C080E0B2DF109262005D
:0A00E00010926000DCCFF894FFCF0F
:00000001FF
