:100000000EC01DC01CC03EC02EC019C018C017C0F5
:1000100016C015C014C013C012C011C010C01124E6
:100020001FBECFE5D2E0DEBFCDBF10E0A0E6B0E05E
:1000300001C01D92A136B107E1F72ED060C0E0CF1C
:10004000882319F088B3826002C088B38D7F88BB93
:1000500008958FE080BF89B7846089BF0895469A6C
:10006000439A419A08951F920F920FB60F9211244E
:100070008F9381E0809360008F910F900FBE0F905F
:100080001F9018951F920F920FB60F9211240F9088
:100090000FBE0F901F901895CF93DF9300D0CDB770
:1000A000DEB7B99A81E0CCDFD4DFD9DF789485B7A9
:1000B0008F7E85BF85B7877F85BF1CE01FBD85B755
:1000C000806285BF889585B78F7D85BF80916000F0
:1000D0008130A1F71A828A818F5F8A83813061F42F
:1000E00019829981911180E08983882311F081E040
:1000F00001C080E0A5DF1A8210926000DFCFF89483
:02010000FFCF2F
:00000001FF
